EDI_DC40  1500000000000232990753 3012  ZRECCBKLSL                                                  ZRECCBKOUT                                       SAPS4D    LS  S4DCLNT150                                                                                           EDI3PLPOR KU  0001018504                                                                                           20230623185535                                                                                                                20230623185535      
ZRECCBKHDRL000                1500000000000232990000001000000010020230623CM8052528                                 DS ABC DC OLIVE BRANCH                                                            11RA0504743                 163.45              0         163.45 639497613 6                            0 
ZRECCBKLNL000                 150000000000023299000000200000102  LPABC101                                            70756-720-11   EA     26.00      6.15         2.00 EA                                                                                                                                                                                                                                                                                                                                     
ZRECCBKLNL000                 150000000000023299000000300000102  LPABC101                                            70756-721-11   EA     35.00     10.25         1.00-EA                                                                                                                                                                                                                                                                                                                                     
ZRECCBKLNL000                 150000000000023299000000400000102  LPABC101                                            70756-721-11   EA     35.00     10.25         1.00 EA                                                                                                                                                                                                                                                                                                                                     
ZRECCBKLNL000                 150000000000023299000000500000102  LPABC101                                            70756-721-11   EA     35.00     10.25         3.00 EA                                                                                                                                                                                                                                                                                                                                     
ZRECCBKLNL000                 150000000000023299000000600000102  LPABC101                                            70756-721-11   EA     35.00     10.25         1.00 EA                                                                                                                                                                                                                                                                                                                                     
ZRECCBKLNL000                 150000000000023299000000700000102  LPABC101                                            70756-721-11   EA     35.00     10.25         1.00 EA                                                                                                                                                                                                                                                                                                                                     
